:020000040800F2
:1000000000000220751600087D1500088315000801
:10001000891500088F1500089515000800000000DC
:100020000000000000000000000000009B15000818
:10003000A915000800000000B7150008C515000844
:10004000C5160008C5160008C5160008C516000824
:10005000C5160008C5160008C5160008C516000814
:100060003D130008C5160008C5160008C51600088F
:10007000C5160008C5160008C5160008C5160008F4
:10008000C5160008C5160008C516000800000000C7
:10009000000000000000000000000000C51600087D
:1000A000C5160008C5160008C5160008C5160008C4
:1000B000C5160008C5160008C5160008C5160008B4
:1000C000C5160008C5160008C5160008C5160008A4
:1000D000C5160008C5160008C51600080000000077
:1000E000C5160008C5160008C51600080000000067
:1000F000000000000000000000000000C51600081D
:1001000000000000C5160008C5160008C516000846
:1001100000000000000000000000000000000000DF
:10012000C5160008C5160008C5160008C516000843
:10013000C5160008000000000000000000000000DC
:10014000000000000000000000000000C5160008CC
:10015000C5160008C5160008C5160008D115000808
:10016000C5160008C51600080000000000000000C9
:10017000000000000000000000000000000000007F
:1001800000000000C516000800000000000000008C
:08019000C5160008C5160008A1
:1001A00010B5054C237833B9044B13B10448AFF3B1
:1001B00000800123237010BD7000002000000000AB
:1001C000804E000808B5034B1BB103490348AFF349
:1001D000008008BD0000000074000020804E000870
:1001E000034613F8012B002AFBD1181A0138704777
:1001F00001F0FF01102A2BDB10F0070F08D010F8D8
:10020000013B013A8B422DD010F0070F42B3F6D1DB
:10021000F0B441EA012141EA014122F007047FF0F4
:1002200000070023F0E80256083C85EA010586EA4B
:10023000010685FA47F5A3FA87F586FA47F6A5FA87
:1002400087F68EB9EED1F0BC01F0FF0102F0070293
:1002500032B110F8013B013A83EA010313B1F8D13E
:100260000020704701387047002D06BF354603381F
:10027000073815F0010F07D1013015F4807F02BF58
:10028000013015F4C03F0130F0BC0138704700BFA9
:1002900081F0004102E000BF83F0004330B54FEA37
:1002A00041044FEA430594EA050F08BF90EA020FA4
:1002B0001FBF54EA000C55EA020C7FEA645C7FEA37
:1002C000655C00F0E2804FEA5454D4EB5555B8BF5A
:1002D0006D420CDD2C4480EA020281EA030382EACB
:1002E000000083EA010180EA020281EA0303362D5D
:1002F00088BF30BD11F0004F4FEA01314FF4801C30
:100300004CEA113102D0404261EB410113F0004F41
:100310004FEA03334CEA133302D0524263EB4303F8
:1003200094EA050F00F0A780A4F10104D5F1200E96
:100330000DDB02FA0EFC22FA05F2801841F10001F1
:1003400003FA0EF2801843FA05F359410EE0A5F1C5
:1003500020050EF1200E012A03FA0EFC28BF4CF0F6
:10036000020C43FA05F3C01851EBE37101F00045AC
:1003700007D54FF0000EDCF1000C7EEB00006EEBB9
:100380000101B1F5801F1BD3B1F5001F0CD3490843
:100390005FEA30004FEA3C0C04F101044FEA44529A
:1003A00012F5800F80F09A80BCF1004F08BF5FEA21
:1003B000500C50F1000041EB045141EA050130BD01
:1003C0005FEA4C0C404141EB0101013C28BFB1F513
:1003D000801FE9D291F0000F04BF01460020B1FA5E
:1003E00081F308BF2033A3F10B03B3F120020CDA31
:1003F0000C3208DD02F1140CC2F10C0201FA0CF00F
:1004000021FA02F10CE002F11402D8BFC2F1200C73
:1004100001FA02F120FA0CFCDCBF41EA0C01904029
:10042000E41AA2BF01EB0451294330BD6FEA040472
:100430001F3C1CDA0C340EDC04F11404C4F120025D
:1004400020FA04F001FA02F340EA030021FA04F36F
:1004500045EA030130BDC4F10C04C4F1200220FAC6
:1004600002F001FA04F340EA0300294630BD21FA04
:1004700004F0294630BD94F0000F83F4801306BFCA
:1004800081F480110134013D4EE77FEA645C18BFBE
:100490007FEA655C29D094EA050F08BF90EA020F55
:1004A00005D054EA000C04BF1946104630BD91EA4D
:1004B000030F1EBF0021002030BD5FEA545C05D150
:1004C0004000494128BF41F0004130BD14F580048F
:1004D0003CBF01F5801130BD01F0004545F0FE4103
:1004E00041F470014FF0000030BD7FEA645C1ABF38
:1004F000194610467FEA655C1CBF0B46024650EA6F
:10050000013406BF52EA033591EA030F41F400219A
:1005100030BD00BF90F0000F04BF0021704730B520
:100520004FF4806404F132044FF000054FF00001F5
:1005300050E700BF90F0000F04BF0021704730B5B6
:100540004FF4806404F1320410F0004548BF40428B
:100550004FF000013EE700BF42004FEAE2014FEAE0
:1005600031014FEA02701FBF12F07F4393F07F4FBB
:1005700081F06051704732F07F4208BF704793F0BE
:100580007F4F04BF41F40021704730B54FF46074D1
:1005900001F0004521F000411CE700BF50EA0102D4
:1005A00008BF704730B54FF000050AE050EA01027D
:1005B00008BF704730B511F0004502D5404261EBED
:1005C00041014FF4806404F132045FEA915C3FF42E
:1005D000D8AE4FF003025FEADC0C18BF03325FEACB
:1005E000DC0C18BF033202EBDC02C2F1200300FA7C
:1005F00003FC20FA02F001FA03FE40EA0E0021FAA1
:1006000002F11444BDE600BF70B54FF0FF0C4CF48E
:10061000E06C1CEA11541DBF1CEA135594EA0C0F40
:1006200095EA0C0F00F0DEF82C4481EA030621EA7B
:100630004C5123EA4C5350EA013518BF52EA0335B6
:1006400041F4801143F4801338D0A0FB02CE4FF068
:100650000005E1FB02E506F00042E0FB03E54FF098
:100660000006E1FB03569CF0000F18BF4EF0010E90
:10067000A4F1FF04B6F5007F64F5407404D25FEA8C
:100680004E0E6D4146EB060642EAC62141EA55513F
:100690004FEAC52040EA5E504FEACE2EB4F1FD0C81
:1006A00088BFBCF5E06F1ED8BEF1004F08BF5FEAFF
:1006B000500E50F1000041EB045170BD06F00046B1
:1006C00046EA010140EA020081EA0301B4EB5C045E
:1006D000C2BFD4EB0C0541EA045170BD41F4801156
:1006E0004FF0000E013C00F3AB8014F1360FDEBF7B
:1006F000002001F0004170BDC4F10004203C35DA57
:100700000C341BDC04F11404C4F1200500FA05F3D9
:1007100020FA04F001FA05F240EA020001F000427A
:1007200021F0004110EBD37021FA04F642EB0601F0
:100730005EEA430E08BF20EAD37070BDC4F10C041A
:10074000C4F1200500FA04F320FA05F001FA04F2DE
:1007500040EA020001F0004110EBD37041F10001CA
:100760005EEA430E08BF20EAD37070BDC4F12005D5
:1007700000FA05F24EEA020E20FA04F301FA05F23D
:1007800043EA020321FA04F001F0004121FA04F2E5
:1007900020EA020000EBD3705EEA430E08BF20EAB5
:1007A000D37070BD94F0000F0FD101F000464000EF
:1007B00041EB010111F4801F08BF013CF7D041EA71
:1007C000060195F0000F18BF704703F00046520075
:1007D00043EB030313F4801F08BF013DF7D043EA46
:1007E0000603704794EA0C0F0CEA135518BF95EAFC
:1007F0000C0F0CD050EA410618BF52EA4306D1D183
:1008000081EA030101F000414FF0000070BD50EAA1
:10081000410606BF1046194652EA430619D094EA2B
:100820000C0F02D150EA013613D195EA0C0F05D115
:1008300052EA03361CBF104619460AD181EA030169
:1008400001F0004141F0FE4141F470014FF0000021
:1008500070BD41F0FE4141F4780170BD70B54FF0BC
:10086000FF0C4CF4E06C1CEA11541DBF1CEA13553C
:1008700094EA0C0F95EA0C0F00F0A7F8A4EB05041E
:1008800081EA030E52EA03354FEA013100F0888015
:100890004FEA03334FF0805545EA131343EA1263DE
:1008A0004FEA022245EA111545EA10654FEA002693
:1008B0000EF000419D4208BF964244F1FD0404F54C
:1008C000407402D25B084FEA3202B61A65EB0305A8
:1008D0005B084FEA32024FF480104FF4002CB6EB65
:1008E000020E75EB030E22BFB61A754640EA0C00E5
:1008F0005B084FEA3202B6EB020E75EB030E22BF25
:10090000B61A754640EA5C005B084FEA3202B6EB65
:10091000020E75EB030E22BFB61A754640EA9C0024
:100920005B084FEA3202B6EB020E75EB030E22BFF4
:10093000B61A754640EADC0055EA060E18D04FEAB2
:10094000051545EA16754FEA06164FEAC30343EA52
:1009500052734FEAC2025FEA1C1CC0D111F4801F1F
:100960000BD141EA00014FF000004FF0004CB6E718
:1009700011F4801F04BF01430020B4F1FD0C88BFB7
:10098000BCF5E06F3FF6AFAEB5EB030C04BFB6EBC2
:10099000020C5FEA500C50F1000041EB045170BDB5
:1009A0000EF0004E4EEA113114EB5C04C2BFD4EBE2
:1009B0000C0541EA045170BD41F480114FF0000E66
:1009C000013C90E645EA060E8DE60CEA135594EAE2
:1009D0000C0F08BF95EA0C0F3FF43BAF94EA0C0FE5
:1009E0000AD150EA01347FF434AF95EA0C0F7FF45A
:1009F00025AF104619462CE795EA0C0F06D152EAAE
:100A000003353FF4FDAE1046194622E750EA410691
:100A100018BF52EA43067FF4C5AE50EA41047FF4A2
:100A20000DAF52EA43057FF4EBAE12E74A0011D254
:100A300012F5001211D20DD56FF47873B3EB625238
:100A40000ED44FEAC12343F0004343EA505323FA44
:100A500002F070474FF00000704750EA013002D1B9
:100A60004FF0FF3070474FF0000070474FEA4102EF
:100A7000B2F1E04324BFB3F5001CDCF1FE5C0DD9FC
:100A800001F0004C4FEAC0024CEA5070B2F1004F46
:100A900040EB830008BF20F00100704711F0804F49
:100AA00021D113F13872BCBF01F00040704741F40E
:100AB00080114FEA5252C2F11802C2F1200C10FA12
:100AC0000CF320FA02F018BF40F001004FEAC123F6
:100AD0004FEAD32303FA0CFC40EA0C0023FA02F39A
:100AE0004FEA4303CCE77FEA625307D150EA013370
:100AF0001EBF4FF0FE4040F44000704701F0004040
:100B000040F0FE4040F40000704700BF53B94AB9BE
:100B1000002908BF00281CBF4FF0FF314FF0FF3005
:100B200000F074B9ADF1080C6DE904CE00F006F8E0
:100B3000DDF804E0DDE9022304B070472DE9F04759
:100B4000089D04468E46002B4DD18A42944669D9B1
:100B5000B2FA82F252B101FA02F3C2F1200120FA94
:100B600001F10CFA02FC41EA030E94404FEA1C48E2
:100B7000210CBEFBF8F61FFA8CF708FB16E341EADE
:100B8000034306FB07F199420AD91CEB030306F164
:100B9000FF3080F01F81994240F21C81023E634485
:100BA0005B1AA4B2B3FBF8F008FB103344EA034429
:100BB00000FB07F7A7420AD91CEB040400F1FF333E
:100BC00080F00A81A74240F207816444023840EA7B
:100BD0000640E41B00261DB1D4400023C5E90043B4
:100BE0003146BDE8F0878B4209D9002D00F0EF8037
:100BF0000026C5E9000130463146BDE8F087B3FA6A
:100C000083F6002E4AD18B4202D3824200F2F98051
:100C1000841A61EB030301209E46002DE0D0C5E954
:100C2000004EDDE702B9FFDEB2FA82F2002A40F0A0
:100C30009280A1EB0C014FEA1C471FFA8CFE0126A3
:100C4000200CB1FBF7F307FB131140EA01410EFB47
:100C500003F0884208D91CEB010103F1FF3802D2EE
:100C6000884200F2CB804346091AA4B2B1FBF7F0E8
:100C700007FB101144EA01440EFB00FEA64508D90B
:100C80001CEB040400F1FF3102D2A64500F2BB8048
:100C90000846A4EB0E0440EA03409CE7C6F1200797
:100CA000B34022FA07FC4CEA030C20FA07F401FADD
:100CB00006F31C43F9404FEA1C4900FA06F3B1FB66
:100CC000F9F8200C1FFA8CFE09FB181140EA0141CB
:100CD00008FB0EF0884202FA06F20BD91CEB010168
:100CE00008F1FF3A80F08880884240F28580A8F1C0
:100CF00002086144091AA4B2B1FBF9F009FB101112
:100D000044EA014100FB0EFE8E4508D91CEB0101AF
:100D100000F1FF346CD28E456AD90238614440EA52
:100D20000840A0FB0294A1EB0E01A142C846A646D2
:100D300056D353D05DB1B3EB080261EB0E0101FA5B
:100D400007F722FA06F3F1401F43C5E900710026B8
:100D50003146BDE8F087C2F12003D8400CFA02FC0E
:100D600021FA03F3914001434FEA1C471FFA8CFE1E
:100D7000B3FBF7F007FB10360B0C43EA064300FB0E
:100D80000EF69E4204FA02F408D91CEB030300F1AC
:100D9000FF382FD29E422DD9023863449B1B89B263
:100DA000B3FBF7F607FB163341EA034106FB0EF3EC
:100DB0008B4208D91CEB010106F1FF3816D28B4299
:100DC00014D9023E6144C91A46EA004638E72E4665
:100DD000284605E70646E3E61846F8E64B45A9D25D
:100DE000B9EB020864EB0C0E0138A3E74646EAE7CC
:100DF000204694E74046D1E7D0467BE7023B61447A
:100E000032E7304609E76444023842E7704700BFE2
:100E100080B582B000AF78607868FFF7E1F90346EB
:100E20009AB24FF47A737968034802F050FB00BF1E
:100E30000837BD4680BD00BFF80000200FB480B564
:100E4000A2B000AF07F19403C7F8843000237B60A1
:100E500007F108037C220021184603F08DFB3B1D9F
:100E6000D7F88420D7F89010184603F0B1FB3B1D4B
:100E70001846FFF7CDFF00BF8837BD46BDE880406C
:100E800004B070470000000080B584B002AF00F0ED
:100E9000BDFE00F093F800F0A9F900F0F9F800F0B9
:100EA00073F900F0D9F93C4B1B6801333A4A1360DF
:100EB00001223A493A4802F09CFB3A4800F080FF90
:100EC0006421384801F030F8364801F0B8F803469C
:100ED000354A13606421334801F026F8314801F0A7
:100EE000AEF80346304A53602F4B5B681846FFF755
:100EF00011FB27A3D3E90023FFF786FB02460B462D
:100F0000104619464FF00002284BFFF7A7FC024697
:100F10000B4610461946FFF7A9FD03467B6078682B
:100F2000FFF71AFB4FF00002214BFFF76DFB024663
:100F30000B4610461946FFF779FD03461D4A13601C
:100F40006421184800F0F0FF164801F078F80346D5
:100F5000154A93606421134800F0E6FF114801F040
:100F60006EF80346104AD360124B19680E4B1B688B
:100F70001A460D4B5B6818460B4B9B680093034663
:100F80000D48FFF75BFF4FF4FA6000F0B1FE8AE70F
:100F90006666666666660A40AC000020A000002017
:100FA000F8000020B00000208C0000200000B040BD
:100FB000000059409C000020984E000880B594B075
:100FC00000AF07F1200330220021184603F0D4FAC5
:100FD00007F10C0300221A605A609A60DA601A6105
:100FE0000023BB60284B1B6C274A43F080531364DB
:100FF000254B1B6C03F08053BB60BB6800237B60F8
:10100000224B1B68214A43F4404313601F4B1B686B
:1010100003F440437B607B6801233B624FF48033E1
:101020007B620223BB634FF48003FB6304233B64B6
:1010300064237B640223BB640423FB6407F1200365
:10104000184601F05FFD0346002B01D000F0D4F9F3
:101050000F23FB6002233B6100237B614FF480532D
:10106000BB614FF4A053FB6107F10C030321184649
:1010700001F0C0FF0346002B01D000F0BDF900BF16
:101080005037BD4680BD00BF0038024000700040B0
:1010900080B584B000AF3B4600221A605A609A6067
:1010A000DA60364B364A1A60344B00225A60334BB2
:1010B00000229A60314B01221A61304B00221A76CD
:1010C0002E4B002283F820202C4B0022DA622B4B7F
:1010D0002C4A9A62294B0022DA60284B0522DA61F9
:1010E000264B002283F83020244B01225A612348EA
:1010F00000F022FE0346002B01D000F07DF9012311
:101100003B6001237B600723BB603B4619461B48BD
:1011100000F0A2FF0346002B01D000F06DF902237E
:101120003B6002237B603B461946144800F094FF65
:101130000346002B01D000F05FF903233B6003233B
:101140007B603B4619460D4800F086FF0346002BA6
:1011500001D000F051F904233B6004237B603B463F
:101160001946064800F078FF0346002B01D000F036
:1011700043F900BF1037BD4680BD00BFB00000205E
:10118000002001400100000F80B500AF154B164A4A
:101190001A60144B4FF4E1325A60124B00229A60ED
:1011A000104B0022DA600F4B00221A610D4B0C220B
:1011B0005A610C4B00229A610A4B0022DA610948FD
:1011C00002F038F90346002B01D000F015F9002297
:1011D0000021472001F049FA472001F062FA00BFE0
:1011E00080BD00BFF80000200014014080B485B02D
:1011F00000AF0023FB60174B1B6B164A43F08003C4
:101200001363144B1B6B03F08003FB60FB6800232C
:10121000BB60104B1B6B0F4A43F0010313630D4B74
:101220001B6B03F00103BB60BB6800237B60094BB1
:101230001B6B084A43F004031363064B1B6B03F05C
:1012400004037B607B6800BF1437BD465DF8047BF8
:10125000704700BF0038024080B58CB000AF07F186
:1012600018030C220021184603F086F907F1240325
:101270000C220021184603F07FF907F10C030C2221
:101280000021184603F078F93B460C22002118464D
:1012900003F072F9284BBB6100233B7701237B7776
:1012A000012387F820300223BB770023FB7707F167
:1012B0001803184600F008FA1F4B7B62012387F8D9
:1012C0002830012387F82930012387F82C300223A6
:1012D00087F82A30002387F82B3007F124031846BB
:1012E00000F0F2F9144BFB6002233B7404237B747F
:1012F0000223BB740123FB7407F10C03184600F0B2
:10130000E3F90F21082000F037FC0121082000F04C
:10131000ADFB094B3B6003233B7100237B71022330
:10132000BB710123FB713B46184600F0CDF900BFAD
:101330003037BD4680BD00BF0008024080B500AF19
:101340000121064800F07DFB0021044800F079FBF4
:10135000022000F03BFC00BF80BD00BF000802403F
:1013600080B582B000AF78607B681A681C4B1B6840
:101370009A4231D131211B4803F006F90346002B74
:1013800015D000220021184800F036FB0022012170
:10139000154800F031FB1548FFF750FD1448FFF7E2
:1013A0004DFD0A2200210F4803F0E6F814E0012267
:1013B00000210D4800F020FB012201210A4800F025
:1013C0001BFB0C48FFF73AFD0948FFF737FD0A22DF
:1013D0000021044803F0D0F800BF0837BD4680BDA7
:1013E000F8000020A000002000080240A44E0008E1
:1013F000BC4E0008D84E000880B400AF72B600BFE3
:10140000FEE7000080B483B000AF00237B60104B88
:101410005B6C0F4A43F4804353640D4B5B6C03F4E5
:1014200080437B607B6800233B60094B1B6C084A50
:1014300043F080531364064B1B6C03F080533B60F6
:101440003B6800BF0C37BD465DF8047B704700BFAA
:101450000038024080B58AB000AF786007F114030D
:1014600000221A605A609A60DA601A617B681B6811
:10147000174A934227D100233B61164B5B6C154AF8
:1014800043F480735364134B5B6C03F480733B61D0
:101490003B690023FB600F4B1B6B0E4A43F00103BB
:1014A00013630C4B1B6B03F00103FB60FB6806230B
:1014B0007B610323BB610023FB6107F11403194621
:1014C000054801F09BF900BF2837BD4680BD00BF2D
:1014D00000200140003802400000024080B58AB080
:1014E00000AF786007F1140300221A605A609A6016
:1014F000DA601A617B681B681D4A934233D100236E
:101500003B611C4B5B6C1B4A43F020035364194B3B
:101510005B6C03F020033B613B690023FB60154BD0
:101520001B6B144A43F004031363124B1B6B03F051
:101530000403FB60FB68C0237B610223BB610023C3
:10154000FB6103233B6208237B6207F11403194606
:10155000094801F053F900220021472001F085F8E5
:10156000472001F09EF800BF2837BD4680BD00BF70
:1015700000140140003802400008024080B400AF6F
:10158000FEE780B400AFFEE780B400AFFEE780B4B2
:1015900000AFFEE780B400AFFEE780B400AF00BF4D
:1015A000BD465DF8047B704780B400AF00BFBD4608
:1015B0005DF8047B704780B400AF00BFBD465DF8A6
:1015C000047B704780B500AF00F072FB00BF80BDA8
:1015D00080B500AF024802F03DF800BF80BD00BFFB
:1015E000F800002080B586B000AF7860144A154B33
:1015F000D31A7B617B693B61134B1B68002B02D1C3
:10160000114B124A1A60104B1A687B6813443A69EE
:101610009A4207D202F086FF03460C221A604FF06E
:10162000FF3309E0084B1B68FB60074B1A687B68B7
:101630001344054A1360FB6818461837BD4680BD41
:1016400000000220000400003C010020580100209E
:1016500080B400AF064BD3F88830054A43F47003DA
:10166000C2F8883000BFBD465DF8047B704700BFFC
:1016700000ED00E0DFF834D00D480E490E4A00239B
:1016800002E0D458C4500433C4188C42F9D30B4A36
:101690000B4C002301E013600432A242FBD3FFF79E
:1016A000D7FF02F045FFFFF7EFFB70470000022075
:1016B0000000002070000020504F00087000002043
:1016C00054010020FEE7000080B487B000AF7860CE
:1016D00000237B617B685B79032B20D87B685B7977
:1016E0001A467B681B795B0002FA03F37B617B6817
:1016F0001B681A687B681B795B00032101FA03F3FE
:10170000DB4319467B681B680A401A607B681B68CC
:1017100019687B681B687A690A431A60CBE07B68AA
:101720005B79042B17D14B4BDB687A681279114631
:1017300001228A401146474A0B43D360454B9B68C0
:101740007A681279114601228A40D2431146414AF1
:101750000B40936035E07B685B79052B17D13D4BDF
:101760009B687A681279114601228A401146394AEB
:101770000B439360374BDB687A681279114601227C
:101780008A40D2431146334A0B40D36019E07B684C
:101790005B79062B15D12F4B9B687A68127911461D
:1017A00001228A4011462B4A0B439360294BDB6888
:1017B0007A681279114601228A401146254A0B4364
:1017C000D3607B681B799B08FB747B681B7903F0F3
:1017D0000303BB747B681B681F4A93424ED07B682F
:1017E0001B681E4A934232D07B681B681C4A934296
:1017F0002BD07B681B681B4A934224D07B681B68F4
:10180000194A93421DD07B681B68184A934216D030
:101810007B681B68164A93420FD07B681B68154A89
:10182000934208D07B681B68134A934201D1082376
:1018300025E0002323E0072321E006231FE0052302
:101840001DE004231BE0032319E0022317E001231A
:1018500015E000BF003C01400000024000040240CF
:1018600000080240000C0240001002400014024038
:1018700000180240001C02400020024000237B743C
:101880005A4B5B6C594A43F4804353647A7CBB7C6B
:101890009B0002FA03F1564AFB7C023342F8231004
:1018A000544B1B687A681279114601228A4011460E
:1018B000504A0B4313607B689B791A467B681B79FF
:1018C0005B0002FA03F37B617B681B689A687B68A4
:1018D0001B795B00032101FA03F3DB4319467B68A4
:1018E0001B680A409A607B681B6899687B681B6864
:1018F0007A690A439A607B68DB791A467B681B79B0
:101900005B0002FA03F37B617B681B68DA687B6823
:101910001B795B00032101FA03F3DB4319467B6863
:101920001B680A40DA607B681B68D9687B681B68A3
:101930007A690A43DA607B681B7A1A467B681B79EE
:1019400002FA03F37B617B681B685A687B681B792A
:10195000194601238B40DB4319467B681B680A400C
:101960005A607B681B6859687B681B687A690A4300
:101970005A607B685B79022B31D17B681B79DB086D
:101980003B747B681B7903F00703FB737B681B6860
:101990003A7C083253F82210FB7B9B000F2202FA9C
:1019A00003F3DB4318467B681B683A7C014008322E
:1019B00043F822107B681B683A7C083253F82210E7
:1019C0007B685B7A1A46FB7B9B0002FA03F318469E
:1019D0007B681B683A7C0143083243F8221000BF41
:1019E0001C37BD465DF8047B704700BF00380240DD
:1019F00000380140003C014080B483B000AF786003
:101A00000B46FB701346BB70BB78012B09D17B687A
:101A10005B69FA78012101FA02F21A437B685A6184
:101A200009E07B685B69FA78012101FA02F2D2438E
:101A30001A407B685A6100BF0C37BD465DF8047BD5
:101A4000704780B483B000AF78600B46FB707B6852
:101A50005B69FA78012101FA02F25A407B685A6107
:101A600000BF0C37BD465DF8047B704780B483B07F
:101A700000AF03460A46FB711346BB71BB79012BCD
:101A800033D1FB791F2B0AD8354B1B68FA7901211A
:101A900001FA02F21146324A0B43136059E0FB7916
:101AA0001F2B0FD9FB793F2B0CD82E4B1B68FA79D3
:101AB00002F01F02012101FA02F21146294A0B43EA
:101AC000136046E0FB793F2B43D9FB795F2B40D86D
:101AD000254B1B68FA7902F03F02012101FA02F25C
:101AE0001146214A0B43136033E0FB791F2B0AD8C0
:101AF0001E4B1B68FA79012101FA02F211461B4ABA
:101B00000B43136025E0FB791F2B0FD9FB793F2B8B
:101B10000CD8174B1B68FA7902F01F02012101FA59
:101B200002F21146124A0B43136012E0FB793F2B7D
:101B30000FD9FB795F2B0CD80E4B1B68FA7902F09A
:101B40003F02012101FA02F211460A4A0B431360D7
:101B5000FFE700BF0C37BD465DF8047B704700BF50
:101B600000E100E004E100E008E100E080E100E0E5
:101B700084E100E088E100E080B485B000AF034676
:101B80003960FB71FB799B08FB73FB7903F003035E
:101B9000BB73BB7BDB00DBB204337B73FB7B9B0043
:101BA00003F1604303F5644319687B7B3A689A400C
:101BB000FB7B9B0003F1604303F564430A431A6017
:101BC00000BF1437BD465DF8047B704780B483B016
:101BD00000AF0346FB710C4B5B69FA79012101FAF6
:101BE00002F21340002B09D0074B5B69FA790121FF
:101BF00001FA02F21146044A0B43536100BF0C374D
:101C0000BD465DF8047B7047003C014080B500AFE5
:101C10000E4B1B680D4A43F4007313600B4B1B689B
:101C20000A4A43F480631360084B1B68074A43F475
:101C300080731360032000F00DFD0F2000F008F802
:101C4000FFF7E0FB0023184680BD00BF003C0240C8
:101C500080B582B000AF7860124B1A68124B1B78C7
:101C600019464FF47A73B3FBF1F3B2FBF3F3184662
:101C700000F025FD0346002B01D001230EE07B6818
:101C80000F2B0AD8002279684FF0FF3000F0EDFCEE
:101C9000064A7B681360002300E0012318460837DA
:101CA000BD4680BD00000020080000200400002088
:101CB00080B400AF064B1B781A46064B1B681344D2
:101CC000044A136000BFBD465DF8047B704700BF47
:101CD000080000204001002080B400AF034B1B68C7
:101CE0001846BD465DF8047B704700BF40010020E8
:101CF00080B584B000AF7860FFF7EEFFB8607B6816
:101D0000FB60FB68B3F1FF3F05D00A4B1B781A4616
:101D1000FB681344FB6000BFFFF7DEFF0246BB68B1
:101D2000D31AFA689A42F7D800BF00BF1037BD46F1
:101D300080BD00BF0800002080B584B000AF78608F
:101D40000023FB737B68002B01D1012333E07B6808
:101D50001B6C002B09D17868FFF77CFB7B680022A5
:101D60005A647B68002283F83C207B681B6C03F07C
:101D70001003002B18D17B681B6C23F4885323F0CD
:101D8000020343F002027B681A64786800F096FA56
:101D90007B6800225A647B681B6C23F0030343F0CA
:101DA00001027B681A6401E00123FB737B68002257
:101DB00083F83C20FB7B18461037BD4680BD0000F1
:101DC00080B485B000AF78600023BB607B6893F877
:101DD0003C30012B01D1022397E07B68012283F87C
:101DE0003C207B681B689B6803F00103012B18D023
:101DF0007B681B689A687B681B6842F001029A60E6
:101E0000454B1B68454AA2FB03239A0C13465B0013
:101E10001344BB6002E0BB68013BBB60BB68002BA6
:101E2000F9D17B681B689B6803F00103012B5FD12C
:101E30007B681B6C23F4E06323F0010343F480729E
:101E40007B681A647B681B685B6803F48063002B03
:101E500007D07B681B6C23F4405343F480527B68AB
:101E60001A647B681B6C03F48053B3F5805F06D162
:101E70007B685B6C23F006027B685A6402E07B6837
:101E800000225A647B68002283F83C20244BFB60CC
:101E90007B681B686FF022021A60FB685B6803F0C6
:101EA0001F03002B0FD17B681B689B6803F0405316
:101EB000002B29D17B681B689A687B681B6842F0FD
:101EC00080429A6020E07B681B68164A93421BD1CF
:101ED0007B681B689B6803F04053002B14D17B6820
:101EE0001B689A687B681B6842F080429A600BE02E
:101EF0007B681B6C43F010027B681A647B685B6C28
:101F000043F001027B685A64002318461437BD462B
:101F10005DF8047B704700BF0000002083DE1B4398
:101F2000002301400020014080B584B000AF7860FC
:101F300039600023FB607B681B689B6803F4806347
:101F4000B3F5806F13D17B681B689B6803F48073C3
:101F5000B3F5807F0BD17B681B6C43F020027B685C
:101F60001A647B68002283F83C20012363E0FFF7BA
:101F7000B3FEF86021E03B68B3F1FF3F1DD03B6842
:101F8000002B07D0FFF7A8FE0246FB68D31A3A6879
:101F90009A4212D27B681B681B6803F00203022B73
:101FA0000BD07B681B6C43F004027B681A647B686F
:101FB000002283F83C2003233DE07B681B681B68FC
:101FC00003F00203022BD6D17B681B686FF012026C
:101FD0001A607B681B6C43F400727B681A647B6830
:101FE0001B689B6803F04053002B23D17B681B7E4A
:101FF000002B1FD17B681B68DB6A03F47003002B86
:1020000006D07B681B689B6803F48063002B11D1AA
:102010007B681B6C23F480727B681A647B681B6C82
:1020200003F48053002B05D17B681B6C43F0010245
:102030007B681A64002318461037BD4680BD80B403
:1020400083B000AF78607B681B68DB6C18460C3788
:10205000BD465DF8047B704780B485B000AF786002
:1020600039600023BB607B6893F83C30012B01D1C1
:10207000022313E17B68012283F83C203B681B6844
:10208000092B25D97B681B68D9683B681B689BB204
:102090001A4613465B0013441E3B072202FA03F361
:1020A000DA437B681B680A40DA607B681B68D96882
:1020B0003B689A683B681B689BB2184603465B0006
:1020C00003441E3B9A407B681B680A43DA6022E0A7
:1020D0007B681B6819693B681B689BB21A461346EC
:1020E0005B001344072202FA03F3DA437B681B68A0
:1020F0000A401A617B681B6819693B689A683B68EB
:102100001B689BB2184603465B0003449A407B68F9
:102110001B680A431A613B685B68062B24D87B68FE
:102120001B68596B3B685A6813469B001344053B78
:102130001F2202FA03F3DA437B681B680A405A63E2
:102140007B681B68596B3B681B689BB218463B68F1
:102150005A6813469B001344053B00FA03F27B6860
:102160001B680A435A634CE03B685B680C2B24D81D
:102170007B681B68196B3B685A6813469B001344C5
:10218000233B1F2202FA03F3DA437B681B680A40F1
:102190001A637B681B68196B3B681B689BB2184607
:1021A0003B685A6813469B001344233B00FA03F232
:1021B0007B681B680A431A6323E07B681B68D96A43
:1021C0003B685A6813469B001344413B1F2202FAA6
:1021D00003F3DA437B681B680A40DA627B681B689A
:1021E000D96A3B681B689BB218463B685A6813461D
:1021F0009B001344413B00FA03F27B681B680A43CF
:10220000DA62294BFB607B681B68284A93420FD136
:102210003B681B68122B0BD1FB685B6823F4000240
:10222000FB685A60FB685B6843F48002FB685A6095
:102230007B681B681D4A93422BD13B681B681C4A74
:10224000934203D03B681B68112B22D1FB685B686B
:1022500023F48002FB685A60FB685B6843F4000269
:10226000FB685A603B681B68114A934211D1114BBD
:102270001B68114AA2FB03239A0C13469B001344CC
:102280005B00BB6002E0BB68013BBB60BB68002B2E
:10229000F9D17B68002283F83C20002318461437CC
:1022A000BD465DF8047B70470023014000200140DB
:1022B000120000100000002083DE1B4380B485B0B4
:1022C00000AF7860794BFB60FB685B6823F44032B9
:1022D000FB685A60FB685A687B685B681A43FB6856
:1022E0005A607B681B685A687B681B6822F480729E
:1022F0005A607B681B6859687B681B691A027B6897
:102300001B680A435A607B681B685A687B681B68B5
:1023100022F040725A607B681B6859687B689A6833
:102320007B681B680A435A607B681B689A687B68F5
:102330001B6822F400629A607B681B6899687B685E
:10234000DA687B681B680A439A607B689B6A584A14
:10235000934222D07B681B689A687B681B6822F0D6
:1023600070629A607B681B6899687B689A6A7B6870
:102370001B680A439A607B681B689A687B681B68C5
:1023800022F040529A607B681B6899687B68DA6A21
:102390007B681B680A439A600FE07B681B689A6839
:1023A0007B681B6822F070629A607B681B689A6881
:1023B0007B681B6822F040529A607B681B689A68B1
:1023C0007B681B6822F002029A607B681B68996830
:1023D0007B681B7E5A007B681B680A439A607B6897
:1023E00093F82030002B1BD07B681B685A687B68F1
:1023F0001B6842F400625A607B681B685A687B68FD
:102400001B6822F460425A607B681B6859687B68CD
:102410005B6A013B5A037B681B680A435A6007E00A
:102420007B681B685A687B681B6822F400625A60EC
:102430007B681B68DA6A7B681B6822F47002DA62C8
:102440007B681B68D96A7B68DB69013B1A057B687E
:102450001B680A43DA627B681B689A687B681B68A2
:1024600022F400729A607B681B6899687B6893F815
:1024700030305A027B681B680A439A607B681B688D
:102480009A687B681B6822F480629A607B681B688C
:1024900099687B685B699A027B681B680A439A604B
:1024A00000BF1437BD465DF8047B70470023014030
:1024B0000100000F80B485B000AF78607B6803F046
:1024C0000703FB600C4BDB68BB60BA684FF6FF0389
:1024D0001340BB60FB681A02BB68134343F0BF6341
:1024E00043F40033BB60044ABB68D36000BF1437B9
:1024F000BD465DF8047B704700ED00E080B400AF9E
:10250000044BDB681B0A03F007031846BD465DF861
:10251000047B704700ED00E080B483B000AF034659
:10252000FB7197F90730002B0BDBFB7903F01F02DF
:10253000074997F907305B09012000FA02F241F8D8
:10254000232000BF0C37BD465DF8047B704700BFF9
:1025500000E100E080B483B000AF03463960FB7156
:1025600097F90730002B0ADB3B68DAB20C4997F980
:1025700007301201D2B20B4483F800230AE03B6813
:10258000DAB20849FB7903F00F03043B1201D2B21F
:102590000B441A7600BF0C37BD465DF8047B7047CC
:1025A00000E100E000ED00E080B489B000AFF86029
:1025B000B9607A60FB6803F00703FB61FB69C3F154
:1025C0000703042B28BF0423BB61FB690433062BDC
:1025D00002D9FB69033B00E000237B614FF0FF322F
:1025E000BB6902FA03F3DA43BB681A407B699A407D
:1025F0004FF0FF317B6901FA03F3D9437B680B404D
:10260000134318462437BD465DF8047B704700002D
:1026100080B582B000AF78607B68013BB3F1807F0A
:1026200001D301230FE00A4A7B68013B53600F216D
:102630004FF0FF30FFF78EFF054B00229A60044BEE
:1026400007221A60002318460837BD4680BD00BF28
:1026500010E000E080B582B000AF78607868FFF7E6
:1026600029FF00BF0837BD4680BD80B586B000AFEA
:102670000346B9607A60FB7300237B61FFF73EFF7E
:1026800078617A68B9687869FFF78EFF024697F932
:102690000F3011461846FFF75DFF00BF1837BD46E3
:1026A00080BD80B582B000AF0346FB7197F907305B
:1026B0001846FFF731FF00BF0837BD4680BD80B523
:1026C00082B000AF78607868FFF7A2FF0346184633
:1026D0000837BD4680BD80B584B000AF78607B68A8
:1026E0009B6DFB60FFF7F8FAB8607B6893F83530B4
:1026F000DBB2022B08D07B6880225A657B680022FF
:1027000083F83420012352E07B681B681A687B68D9
:102710001B6822F016021A607B681B685A697B6886
:102720001B6822F080025A617B681B6C002B03D16E
:102730007B689B6C002B07D07B681B681A687B68E2
:102740001B6822F008021A607B681B681A687B68A5
:102750001B6822F001021A6013E0FFF7BDFA02467F
:10276000BB68D31A052B0CD97B6820225A657B687D
:10277000032283F835207B68002283F8342003236A
:1027800015E07B681B681B6803F00103002BE4D194
:102790007B68DB6D3F229A40FB689A607B68012270
:1027A00083F835207B68002283F834200023184604
:1027B0001037BD4680BD80B483B000AF78607B68C1
:1027C00093F83530DBB2022B04D07B6880225A6547
:1027D00001230CE07B68052283F835207B681B68A9
:1027E0001A687B681B6822F001021A6000231846F1
:1027F0000C37BD465DF8047B7047000080B489B09B
:1028000000AF7860396000237B6100233B610023C7
:10281000BB610023FB6159E10122FB6902FA03F36A
:102820007B613B681B687A6913403B613A697B694D
:102830009A4240F048813B685B6803F00303012B38
:1028400005D03B685B6803F00303022B30D17B6843
:102850009B68BB61FB695B00032202FA03F3DB4365
:10286000BA691340BB613B68DA68FB695B0002FA36
:1028700003F3BA691343BB617B68BA699A607B68EA
:102880005B68BB610122FB6902FA03F3DB43BA69AF
:102890001340BB613B685B681B0903F00102FB69E5
:1028A00002FA03F3BA691343BB617B68BA695A60E1
:1028B0003B685B6803F00303032B17D07B68DB687E
:1028C000BB61FB695B00032202FA03F3DB43BA69D5
:1028D0001340BB613B689A68FB695B0002FA03F333
:1028E000BA691343BB617B68BA69DA603B685B68AD
:1028F00003F00303022B23D1FB69DA087B6808325B
:1029000053F82230BB61FB6903F007039B000F22E1
:1029100002FA03F3DB43BA691340BB613B681A69EF
:10292000FB6903F007039B0002FA03F3BA69134340
:10293000BB61FB69DA087B680832B96943F8221089
:102940007B681B68BB61FB695B00032202FA03F32F
:10295000DB43BA691340BB613B685B6803F0030269
:10296000FB695B0002FA03F3BA691343BB617B683E
:10297000BA691A603B685B6803F44033002B00F0CF
:10298000A2800023FB60574B5B6C564A43F48043A4
:102990005364544B5B6C03F48043FB60FB68524A06
:1029A000FB699B08023352F82330BB61FB6903F0DB
:1029B00003039B000F2202FA03F3DB43BA691340BF
:1029C000BB617B68494A934219D07B68484A93426D
:1029D00013D07B68474A93420DD07B68464A9342A6
:1029E00007D07B68454A934201D1042308E00723BE
:1029F00006E0032304E0022302E0012300E00023B9
:102A0000FA6902F0030292009340BA691343BB6172
:102A10003549FB699B080233BA6941F82320384BDA
:102A20009B68BB613B69DB43BA691340BB613B6890
:102A30005B6803F48013002B03D0BA693B6913432E
:102A4000BB612F4ABB6993602D4BDB68BB613B695F
:102A5000DB43BA691340BB613B685B6803F4001356
:102A6000002B03D0BA693B691343BB61244ABB699D
:102A7000D360234B5B68BB613B69DB43BA6913409E
:102A8000BB613B685B6803F40033002B03D0BA6979
:102A90003B691343BB611A4ABB695360184B1B68FF
:102AA000BB613B69DB43BA691340BB613B685B6850
:102AB00003F48033002B03D0BA693B691343BB6135
:102AC0000F4ABB691360FB690133FB61FB690F2B84
:102AD0007FF6A2AE00BF00BF2437BD465DF8047B81
:102AE000704700BF0038024000380140000002403B
:102AF0000004024000080240000C024000100240A6
:102B0000003C014080B586B000AF78607B68002B48
:102B100001D1012367E27B681B6803F00103002BEE
:102B200075D0884B9B6803F00C03042B0CD0854BAD
:102B30009B6803F00C03082B12D1824B5B6803F4F3
:102B40008003B3F5800F0BD17E4B1B6803F4003379
:102B5000002B5BD07B685B68002B57D1012342E2DE
:102B60007B685B68B3F5803F06D1764B1B68754A7E
:102B700043F4803313601DE07B685B68B3F5A02FDE
:102B80000CD1704B1B686F4A43F4802313606D4B6C
:102B90001B686C4A43F4803313600BE0694B1B687D
:102BA000684A23F480331360664B1B68654A23F43C
:102BB000802313607B685B68002B13D0FFF78CF8D1
:102BC000386108E0FFF788F802463B69D31A642BA6
:102BD00001D9032307E25B4B1B6803F40033002B8E
:102BE000F0D014E0FFF778F8386108E0FFF774F8E8
:102BF00002463B69D31A642B01D90323F3E1514BFD
:102C00001B6803F40033002BF0D100E000BF7B68A9
:102C10001B6803F00203002B63D04A4B9B6803F050
:102C20000C03002B0BD0474B9B6803F00C03082BC5
:102C30001CD1444B5B6803F48003002B16D1414B3D
:102C40001B6803F00203002B05D07B68DB68012BB7
:102C500001D00123C7E13B4B1B6823F0F8027B68DE
:102C60001B69DB00374913430B603AE07B68DB6884
:102C7000002B20D0344B01221A60FFF72DF8386169
:102C800008E0FFF729F802463B69D31A022B01D965
:102C90000323A8E12B4B1B6803F00203002BF0D0A9
:102CA000284B1B6823F0F8027B681B69DB00254971
:102CB00013430B6015E0244B00221A60FFF70CF859
:102CC000386108E0FFF708F802463B69D31A022B87
:102CD00001D9032387E11B4B1B6803F00203002B80
:102CE000F0D17B681B6803F00803002B36D07B68AB
:102CF0005B69002B16D0154B01221A60FEF7ECFF22
:102D0000386108E0FEF7E8FF02463B69D31A022B60
:102D100001D9032367E10B4B5B6F03F00203002B28
:102D2000F0D01BE0094B00221A60FEF7D5FF386196
:102D30000EE0FEF7D1FF02463B69D31A022B07D9FA
:102D4000032350E10038024000004742800E474212
:102D5000884B5B6F03F00203002BEAD17B681B6892
:102D600003F00403002B00F097800023FB75814BD8
:102D70001B6C03F08053002B0FD10023BB607D4BF5
:102D80001B6C7C4A43F0805313647A4B1B6C03F03A
:102D90008053BB60BB680123FB75774B1B6803F452
:102DA0008073002B18D1744B1B68734A43F48073F3
:102DB0001360FEF791FF386108E0FEF78DFF0246D1
:102DC0003B69D31A022B01D903230CE16A4B1B6820
:102DD00003F48073002BF0D07B689B68012B06D135
:102DE000644B1B6F634A43F0010313671CE07B686D
:102DF0009B68052B0CD15F4B1B6F5E4A43F00403AD
:102E000013675C4B1B6F5B4A43F0010313670BE0D6
:102E1000584B1B6F574A23F001031367554B1B6F29
:102E2000544A23F0040313677B689B68002B15D07A
:102E3000FEF752FF38610AE0FEF74EFF02463B699B
:102E4000D31A41F28832934201D90323CBE0494B94
:102E50001B6F03F00203002BEED014E0FEF73CFFE3
:102E600038610AE0FEF738FF02463B69D31A41F2A7
:102E70008832934201D90323B5E03E4B1B6F03F028
:102E80000203002BEED1FB7D012B05D1394B1B6CCE
:102E9000384A23F0805313647B689B69002B00F051
:102EA000A180344B9B6803F00C03082B5CD07B683B
:102EB0009B69022B41D1314B00221A60FEF70CFFB7
:102EC000386108E0FEF708FF02463B69D31A022B7F
:102ED00001D9032387E0274B1B6803F00073002B05
:102EE000F0D17B68DA697B681B6A1A437B685B6A8E
:102EF0009B011A437B689B6A5B08013B1B041A43D6
:102F00007B68DB6A1B061B4913434B601B4B01228A
:102F10001A60FEF7E1FE386108E0FEF7DDFE0246CA
:102F20003B69D31A022B01D903235CE0114B1B68C8
:102F300003F00073002BF0D054E0104B00221A6015
:102F4000FEF7CAFE386108E0FEF7C6FE02463B699E
:102F5000D31A022B01D9032345E0064B1B6803F06B
:102F60000073002BF0D13DE07B689B69012B07D1FA
:102F7000012338E000380240007000406000474202
:102F80001B4B5B68FB607B689B69012B28D0FB684F
:102F900003F480027B68DB699A4221D1FB6803F06D
:102FA0003F027B681B6A9A421AD1FA6847F6C073DF
:102FB00013407A68526A9201934211D1FB6803F47C
:102FC00040327B689B6A5B08013B1B049A4207D135
:102FD000FB6803F070627B68DB6A1B069A4201D0D3
:102FE000012300E0002318461837BD4680BD00BF0E
:102FF0000038024080B584B000AF786039607B68EB
:10300000002B01D10123CCE0684B1B6803F00703C0
:103010003A689A420CD9654B3A68D2B21A70634B3F
:103020001B6803F007033A689A4201D00123B8E015
:103030007B681B6803F00203002B20D07B681B68B1
:1030400003F00403002B05D0594B9B68584A43F406
:10305000E05393607B681B6803F00803002B05D0E6
:10306000534B9B68524A43F460439360504B9B68B8
:1030700023F0F0027B689B684D4913438B607B68AB
:103080001B6803F00103002B44D07B685B68012BB5
:1030900007D1474B1B6803F40033002B19D10123E0
:1030A0007FE07B685B68022B03D07B685B68032B47
:1030B00007D13F4B1B6803F00073002B09D101239C
:1030C0006FE03B4B1B6803F00203002B01D101238F
:1030D00067E0374B9B6823F003027B685B683449E9
:1030E00013438B60FEF7F8FDF8600AE0FEF7F4FD8D
:1030F0000246FB68D31A41F28832934201D9032376
:103100004FE02B4B9B6803F00C027B685B689B00D5
:103110009A42EBD1254B1B6803F007033A689A42A9
:103120000CD2224B3A68D2B21A70204B1B6803F0C3
:1031300007033A689A4201D0012332E07B681B689A
:1031400003F00403002B08D0194B9B6823F4E052D2
:103150007B68DB68164913438B607B681B6803F050
:103160000803002B09D0124B9B6823F460427B6854
:103170001B69DB000E4913438B6000F021F8024607
:103180000B4B9B681B0903F00F030A49CB5C22FA27
:1031900003F3094A1360094B1B681846FEF758FDF4
:1031A000002318461037BD4680BD00BF003C0240DA
:1031B00000380240F44E0008000000200400002007
:1031C0002DE9B04F94B000AF00237B640023FB6473
:1031D00000233B640023BB64794B9B6803F00C0322
:1031E000082B0DD0082B00F2E180002B02D0042B1D
:1031F00003D0DBE0734BBB64DBE0734BBB64D8E014
:103200006F4B5B6803F03F037B646D4B5B6803F4BB
:103210008003002B63D06A4B5B689B090022BB6371
:10322000FA63BB6BC3F308033B6300237B63D7E9FB
:103230000C4522462B464FF000004FF0000159018B
:1032400041EAD261500102460B462146511A3961CA
:10325000294663EB01037B614FF000024FF000034E
:10326000D7E904AB59468B01514643EA9163514675
:103270008A015146B2EB0108594663EB01094FF050
:1032800000024FF000034FEAC90343EA58734FEAC4
:10329000C80290469946234618EB0303BB602B46B1
:1032A00049EB0303FB604FF000024FF00003D7E946
:1032B000024529464B02214643EAD15321464A02A0
:1032C000104619467B6C0022BB62FA62D7E90A23DA
:1032D000FDF71CFC02460B461346FB6458E0384BD6
:1032E0005B689B09002218461146C0F308033B6245
:1032F00000237B62D7E9088942464B464FF0000025
:103300004FF00001590141EAD261500102460B46DB
:103310004146B2EB010A494663EB010B4FF0000254
:103320004FF000034FEA8B1343EA9A634FEA8A1285
:10333000B2EB0A0463EB0B054FF000024FF0000301
:10334000EB0043EA5473E20014461D464346E3187B
:103350003B604B4645EB03037B604FF000024FF0B0
:103360000003D7E9004529468B02214643EA9153E1
:1033700021468A02104619467B6C0022BB61FA6125
:10338000D7E90623FDF7C2FB02460B461346FB6452
:103390000B4B5B681B0C03F0030301335B003B64C6
:1033A000FA6C3B6CB2FBF3F3BB6402E0054BBB640D
:1033B00000BFBB6C18465037BD46BDE8B08F00BF9C
:1033C000003802400024F40000127A0080B400AFFC
:1033D000034B1B681846BD465DF8047B704700BF71
:1033E0000000002080B500AFFFF7F0FF0246054B5C
:1033F0009B689B0A03F007030349CB5C22FA03F3A3
:10340000184680BD00380240044F000880B500AF68
:10341000FFF7DCFF0246054B9B685B0B03F00703DD
:103420000349CB5C22FA03F3184680BD0038024002
:10343000044F000880B582B000AF78607B68002B35
:1034400001D101233FE07B6893F83D30DBB2002BD4
:1034500006D17B68002283F83C207868FEF73EF8AE
:103460007B68242283F83D207B681B68DA687B68D0
:103470001B6822F40052DA60786800F0DFFD7B6898
:103480001B681A697B681B6822F490421A617B688A
:103490001B685A697B681B6822F02A025A617B68A4
:1034A0001B68DA687B681B6842F40052DA607B684C
:1034B00000221A647B68202283F83D207B6820224A
:1034C00083F83E20002318460837BD4680BD80B5EE
:1034D0008AB002AFF860B9603B601346FB800023FE
:1034E0007B61FB6893F83D30DBB2202B7CD1BB685D
:1034F000002B02D0FB88002B01D1012375E0FB6873
:1035000093F83C30012B01D102236EE0FB680122CD
:1035100083F83C20FB6800221A64FB68212283F8B0
:103520003D20FEF7D9FB7861FB68FA889A84FB6836
:10353000FA88DA84FB689B68B3F5805F08D1FB6882
:103540001B69002B04D10023FB61BB68BB6103E056
:10355000BB68FB610023BB61FB68002283F83C2051
:103560002AE03B6800937B6900228021F86800F024
:103570001FFB0346002B01D0032336E0FB69002B21
:103580000BD1BB691B881A46FB681B68C2F3080293
:103590005A60BB690233BB6107E0FB691A78FB68BC
:1035A0001B685A60FB690133FB61FB68DB8C9BB2D3
:1035B000013B9AB2FB68DA84FB68DB8C9BB2002B80
:1035C000CFD13B6800937B6900224021F86800F06E
:1035D000EFFA0346002B01D0032306E0FB6820220C
:1035E00083F83D20002300E0022318462037BD4623
:1035F00080BD80B584B000AFF860B9601346FB8031
:10360000FB6893F83E30DBB2202B1DD1BB68002B4A
:1036100002D0FB88002B01D1012316E0FB6893F850
:103620003C30012B01D102230FE0FB68012283F81B
:103630003C20FB6800221A63FB881A46B968F868C8
:1036400000F024FB034600E0022318461037BD4675
:1036500080BD000080B5BAB000AF78607B681B68A1
:103660001B68C7F8E4307B681B68DB68C7F8E0308C
:103670007B681B685B69C7F8DC300023C7F8D8306B
:103680000023C7F8D430D7F8E43003F00F03C7F8AD
:10369000D830D7F8D830002B0FD1D7F8E43003F06A
:1036A0002003002B09D0D7F8E03003F02003002BD3
:1036B00003D0786800F007FC56E2D7F8D830002B2A
:1036C00000F0DE80D7F8DC3003F00103002B06D1D8
:1036D000D7F8E03003F49073002B00F0D180D7F8D6
:1036E000E43003F00103002B0BD0D7F8E03003F4F3
:1036F0008073002B05D07B681B6C43F001027B6854
:103700001A64D7F8E43003F00403002B0BD0D7F889
:10371000DC3003F00103002B05D07B681B6C43F009
:1037200002027B681A64D7F8E43003F00203002B2E
:103730000BD0D7F8DC3003F00103002B05D07B68F9
:103740001B6C43F004027B681A64D7F8E43003F082
:103750000803002B11D0D7F8E03003F02003002B32
:1037600005D1D7F8DC3003F00103002B05D07B68CE
:103770001B6C43F008027B681A647B681B6C002B8F
:1037800000F0ED81D7F8E43003F02003002B08D0DF
:10379000D7F8E03003F02003002B02D0786800F067
:1037A00092FB7B681B685B6903F04003402B0CBFF6
:1037B00001230023DBB2C7F8D4307B681B6C03F015
:1037C0000803002B03D1D7F8D430002B4FD07868F2
:1037D00000F09AFA7B681B685B6903F04003402B9A
:1037E00041D17B681B681433C7F89C30D7F89C30F4
:1037F00053E8003FC7F89830D7F8983023F04003DB
:10380000C7F8D0307B681B681433D7F8D020C7F8CE
:10381000A820C7F8A430D7F8A410D7F8A82041E80A
:103820000023C7F8A030D7F8A030002BD9D17B688F
:103830009B6B002B13D07B689B6B7D4A1A657B6862
:103840009B6B1846FEF7B7FF0346002B16D07B682C
:103850009B6B1B6D7A68926B104698470EE07868F8
:1038600000F090F90AE0786800F08CF906E07868DA
:1038700000F088F97B6800221A6470E100BF6EE1F5
:103880007B681B6B012B40F04A81D7F8E43003F0D2
:103890001003002B00F04381D7F8E03003F0100351
:1038A000002B00F03C810023BB607B681B681B6819
:1038B000BB607B681B685B68BB60BB687B681B6820
:1038C0005B6903F04003402B40F0B4807B689B6B46
:1038D0001B685B68A7F8BE30B7F8BE30002B00F05D
:1038E00040817B689B8DB7F8BE209A4280F0398179
:1038F0007B68B7F8BE20DA857B689B6BDB69B3F524
:10390000807F00F088807B681B680C33C7F88830A4
:10391000D7F8883053E8003FC7F88430D7F88430B0
:1039200023F48073C7F8B8307B681B680C33D7F872
:10393000B820C7F89420C7F89030D7F89010D7F87F
:10394000942041E80023C7F88C30D7F88C30002B46
:10395000D9D17B681B6814337B677B6F53E8003FCA
:103960003B673B6F23F00103C7F8B4307B681B68EB
:103970001433D7F8B420C7F88020FB67F96FD7F865
:10398000802041E80023BB67BB6F002BE1D17B683F
:103990001B6814333B663B6E53E8003FFB65FB6DD1
:1039A00023F04003C7F8B0307B681B681433D7F8A6
:1039B000B020FA66BB66B96EFA6E41E800237B66FA
:1039C0007B6E002BE3D17B68202283F83E207B684E
:1039D00000221A637B681B680C33FB64FB6C53E8A2
:1039E000003FBB64BB6C23F01003C7F8AC307B68AE
:1039F0001B680C33D7F8AC20BA657B65796DBA6D5E
:103A000041E800233B653B6D002BE3D17B689B6B5A
:103A10001846FEF760FE7B689A8D7B68DB8D9BB253
:103A2000D31A9BB21946786800F0B6F899E000BF47
:103A3000CF3D00087B689A8D7B68DB8D9BB2D31AE3
:103A4000A7F8CE307B68DB8D9BB2002B00F08B801B
:103A5000B7F8CE30002B00F086807B681B680C33F3
:103A6000BB63BB6B53E8003F7B637B6B23F49073BA
:103A7000C7F8C8307B681B680C33D7F8C8207A6455
:103A80003B64396C7A6C41E80023FB63FB6B002BD1
:103A9000E3D17B681B6814337B627B6A53E8003F89
:103AA0003B623B6A23F00103C7F8C4307B681B68A4
:103AB0001433D7F8C4203A63FB62F96A3A6B41E8E1
:103AC0000023BB62BB6A002BE3D17B68202283F812
:103AD0003E207B6800221A637B681B680C333B61C5
:103AE0003B6953E8003FFB60FB6823F01003C7F815
:103AF000C0307B681B680C33D7F8C020FA61BB610B
:103B0000B969FA6941E800237B617B69002BE3D145
:103B1000B7F8CE301946786800F03EF823E0D7F8C1
:103B2000E43003F08003002B09D0D7F8E03003F035
:103B30008003002B03D0786800F05DF914E0D7F81B
:103B4000E43003F04003002B0ED0D7F8E03003F050
:103B50004003002B08D0786800F09DF904E000BF16
:103B600002E000BF00E000BFE837BD4680BD00BFF7
:103B700080B483B000AF786000BF0C37BD465DF8FD
:103B8000047B704780B483B000AF786000BF0C370F
:103B9000BD465DF8047B704780B483B000AF7860A9
:103BA0000B467B8000BF0C37BD465DF8047B704739
:103BB00080B590B000AFF860B9603B601346FB7110
:103BC00050E0BB6CB3F1FF3F4CD0BB6C002B07D077
:103BD000FEF782F802463B68D31ABA6C9A4241D289
:103BE000FB681B680C33BB62BB6A53E8003F7B6217
:103BF0007B6A23F4D073FB63FB681B680C33FA6B9E
:103C00007A633B63396B7A6B41E80023FB62FB6AA2
:103C1000002BE5D1FB681B6814337B617B6953E89B
:103C2000003F3B613B6923F00103BB63FB681B68FA
:103C30001433BA6B3A62FB61F9693A6A41E80023CE
:103C4000BB61BB69002BE5D1FB68202283F83D20D6
:103C5000FB68202283F83E20FB68002283F83C208A
:103C600003230FE0FB681B681A68BB681340BA683F
:103C70009A420CBF01230023DBB21A46FB799A4219
:103C80009FD0002318464037BD4680BD80B485B024
:103C900000AFF860B9601346FB80FB68BA689A62AF
:103CA000FB68FA889A85FB68FA88DA85FB68002247
:103CB0001A64FB68222283F83E20FB68002283F806
:103CC0003C20FB681B69002B07D0FB681B68DA6887
:103CD000FB681B6842F48072DA60FB681B685A69F3
:103CE000FB681B6842F001025A61FB681B68DA68D6
:103CF000FB681B6842F02002DA6000231846143784
:103D0000BD465DF8047B704780B495B000AF786025
:103D10007B681B680C337B637B6B53E8003F3B6322
:103D20003B6B23F49073FB647B681B680C33FA6C69
:103D30003A64FB63F96B3A6C41E80023BB63BB6BED
:103D4000002BE5D17B681B6814333B623B6A53E868
:103D5000003FFB61FB6923F00103BB647B681B68C8
:103D60001433BA6CFA62BB62B96AFA6A41E800239A
:103D70007B627B6A002BE5D17B681B6B012B19D121
:103D80007B681B680C33FB60FB6853E8003FBB603B
:103D9000BB6823F010037B647B681B680C337A6C70
:103DA000BA617B617969BA6941E800233B613B698B
:103DB000002BE5D17B68202283F83E207B6800221F
:103DC0001A6300BF5437BD465DF8047B704780B569
:103DD00084B000AF78607B689B6BFB60FB6800225F
:103DE000DA85FB680022DA84F868FFF7CBFE00BFB3
:103DF0001037BD4680BD80B485B000AF78607B6869
:103E000093F83D30DBB2212B3ED17B689B68B3F544
:103E1000805F14D17B681B69002B10D17B681B6A03
:103E2000FB60FB681B881A467B681B68C2F30802AC
:103E30005A607B681B6A9A1C7B681A6208E07B6880
:103E40001B6A591C7A6811621A787B681B685A6071
:103E50007B68DB8C9BB2013B9BB27A681946D184AC
:103E6000002B0FD17B681B68DA687B681B6822F027
:103E70008002DA607B681B68DA687B681B6842F046
:103E80004002DA60002300E0022318461437BD46E2
:103E90005DF8047B704780B582B000AF78607B68C6
:103EA0001B68DA687B681B6822F04002DA607B6876
:103EB000202283F83D207868FFF75AFE0023184639
:103EC0000837BD4680BD80B58CB000AF78607B6898
:103ED00093F83E30DBB2222B40F0AB807B689B68CE
:103EE000B3F5805F17D17B681B69002B13D10023CA
:103EF000FB627B689B6ABB627B681B685B689BB2EA
:103F0000C3F308039AB2BB6A1A807B689B6A9A1C47
:103F10007B689A6226E07B689B6AFB620023BB6237
:103F20007B689B68B3F5805F07D07B689B68002B3C
:103F30000AD17B681B69002B06D17B681B685B6814
:103F4000DAB2FB6A1A7008E07B681B685B68DBB258
:103F500003F07F03DAB2FB6A1A707B689B6A5A1C13
:103F60007B689A627B68DB8D9BB2013B9BB27A686F
:103F70001946D185002B5AD17B681B68DA687B68AB
:103F80001B6822F02002DA607B681B68DA687B68B5
:103F90001B6822F48072DA607B681B685A697B6850
:103FA0001B6822F001025A617B68202283F83E20C0
:103FB0007B681B6B012B35D17B6800221A637B6801
:103FC0001B680C337B617B6953E8003F3B613B69B5
:103FD00023F010037B627B681B680C337A6A3A62B9
:103FE000FB61F9693A6A41E80023BB61BB69002BB8
:103FF000E5D17B681B681B6803F01003102B0AD106
:104000000023FB607B681B681B68FB607B681B6888
:104010005B68FB60FB687B689B8D19467868FFF7DF
:10402000BBFD02E07868FDF79BF9002302E0002366
:1040300000E0022318463037BD4680BD2DE9B04F61
:10404000C0B000AFC7F8F400D7F8F4301B681B69A4
:1040500023F44050D7F8F430D968D7F8F4301A6810
:1040600040EA01031361D7F8F4309A68D7F8F430C6
:104070001B691A43D7F8F4305B691A43D7F8F43058
:10408000DB691343C7F8F830D7F8F4301B68DB68F6
:1040900023F4164121F00C01D7F8F4301A68D7F850
:1040A000F8300B43D360D7F8F4301B685B6923F416
:1040B0004070D7F8F4309969D7F8F4301A6840EABC
:1040C00001035361D7F8F4301A688F4B9A4205D038
:1040D000D7F8F4301A688D4B9A4204D1FFF796F95D
:1040E000C7F8FC0003E0FFF77DF9C7F8FC00D7F83C
:1040F000F430DB69B3F5004F40F00C81D7F8FC30A9
:104100000022C7F8E830C7F8EC20D7E93A45224644
:104110002B469118B9655B41FB65D7E9162321460B
:1041200012EB0108294643EB01094FF000024FF062
:1041300000034FEAC90343EA58734FEAC8029046A6
:104140009946234618EB0303C7F8E0302B4649EBAA
:104150000303C7F8E430D7F8F4305B680022C7F8EF
:10416000D830C7F8DC20D7E936120B46DB183B65A0
:10417000134642EB03037B65D7E91423D7E93801E3
:10418000FCF7C4FC02460B46614BA3FB02235B0910
:104190001C01D7F8FC300022C7F8D030C7F8D42073
:1041A000D7E9348942464B469118B9645B41FB64B8
:1041B000D7E91223414612EB010A494643EB010BB2
:1041C0004FF000024FF000034FEACB0343EA5A736B
:1041D0004FEACA0292469B4643461AEB0303C7F8CE
:1041E000C8304B464BEB0303C7F8CC30D7F8F4305C
:1041F0005B680022C7F8C030C7F8C420D7E9301286
:104200000B46DB183B64134642EB03037B64D7E9A0
:104210001023D7E93201FCF779FC02460B46114620
:104220003B4BA3FB01235B09642202FB03F3CB1A84
:10423000DB0003F13202364BA3FB02235B095B0078
:1042400003F4F8731C44D7F8FC300022C7F8B830E8
:10425000C7F8BC20D7E92E8942464B469118B9636E
:104260005B41FB63D7E90E23414651183963494648
:104270004B417B634FF000024FF00003D7E90CABDA
:104280005946CB00514643EA51735146CA00104685
:104290001946034642469B18C7F8B0304B460A46BB
:1042A00042EB0303C7F8B430D7F8F4305B68002260
:1042B000C7F8A830C7F8AC20D7E92A120B46DB189C
:1042C000BB62134642EB0303FB62D7E90A23D7E93B
:1042D0002C01FCF71BFC02460B460D4BA3FB021303
:1042E0005B09642101FB03F3D31ADB003233084A74
:1042F000A2FB03235B0903F00702D7F8F4301B6825
:1043000022449A6005E100BF001001400014014002
:104310001F85EB51D7F8FC300022C7F8A030C7F852
:10432000A420D7E9288942464B46911839625B415F
:104330007B62D7E9082341465418494643EB0105FF
:104340004FF000024FF00003EB0043EA5473E20029
:1043500014461D464346E318C7F898304B4645EBD4
:104360000303C7F89C30D7F8F4305B680022C7F825
:104370009030C7F894204FF000024FF00003D7E9C7
:10438000244529468B00214643EA917321468A0041
:10439000D7E92601FCF7BAFB02460B46604BA3FBAC
:1043A00002235B091C01D7F8FC300022C7F88830D3
:1043B000C7F88C20D7E9228942464B469118B9614B
:1043C0005B41FB61D7E906234146511839614946F3
:1043D0004B417B614FF000024FF00003D7E904AB83
:1043E0005946CB00514643EA51735146CA00104624
:1043F0001946034642469B18C7F880304B460A468A
:1044000042EB0303C7F88430D7F8F4305B6800222E
:10441000BB67FA674FF000024FF00003D7E91E892F
:1044200049468B00414643EA917341468A00D7E9E9
:104430002001FCF76BFB02460B46394BA3FB021332
:104440005B09642101FB03F3D31A1B013233344AA5
:10445000A2FB03235B0903F0F0031C44D7F8FC30F4
:1044600000223B677A67D7E91C8942464B46911880
:10447000B9605B41FB60D7E90223414651183960BE
:1044800049464B417B604FF000024FF00003D7E9F3
:1044900000AB5946CB00514643EA51735146CA001E
:1044A00010461946034642469B18BB664B460A46D1
:1044B00042EB0303FB66D7F8F4305B6800223B66EF
:1044C0007A664FF000024FF00003D7E91889494699
:1044D0008B00414643EA917341468A00D7E91A01AD
:1044E000FCF714FB02460B460D4BA3FB02135B09C2
:1044F000642101FB03F3D31A1B013233084AA2FBE8
:1045000003235B0903F00F02D7F8F4301B68224441
:104510009A6000BF07F58077BD46BDE8B08F00BF49
:104520001F85EB51014B1868704700BF0C0000203D
:1045300070B50D4D0D4C641BA4100026A64209D188
:104540000B4D0C4C00F09CFC641BA4100026A642F2
:1045500005D170BD55F8043B98470136EEE755F894
:10456000043B98470136F2E7484F0008484F0008DF
:10457000484F00084C4F000802440346934200D1C4
:10458000704703F8011BF9E7C9B2034610F8012B85
:104590001AB18A42F9D118467047002918BF002382
:1045A000F9E7000000B59BB0009104916FF0004165
:1045B0000591029105490391694600F06FF8009B4F
:1045C00000221A701BB05DF804FB00BF0802FFFF59
:1045D00013460A46014602480068FFF7E3BF00BFE2
:1045E0000C0000202DE9F0478E689E4282460C4662
:1045F00090461F4638D88A8912F4906F32D02568C9
:104600000969A5EB0109656905EB450505EBD5755C
:1046100001334B446D109D4238BF1D46530531D5C3
:10462000294600F063FB064650B90C23CAF8003057
:10463000A38943F04003A3814FF0FF30BDE8F0872A
:1046400021694A4600F0BEFAA38923F4906343F03F
:104650008003A381266165614E44A5EB09052660B0
:10466000A5603E46BE4200D93E46206832464146DD
:1046700000F0B6FAA3689B1BA36023683344236051
:104680000020DBE72A4600F0A5FB06460028E1D122
:104690002169504600F0BEFAC7E700002DE9F04F4F
:1046A00098468B891B069DB007460D4614460ED5CD
:1046B0000B6963B9402100F019FB2860286120B91B
:1046C0000C233B604FF0FF30D1E040236B610023AF
:1046D000099320238DF82930CDF80C803023DFF8A2
:1046E000A8818DF82A304FF0010923469A4613F825
:1046F000012B0AB1252AF9D1BAEB040B0BD05B468A
:10470000224629463846FFF76DFF013000F0AA80A7
:10471000099A5A4409929AF80030002B00F0A280BE
:1047200000234FF0FF32CDE905230AF1010A04937B
:1047300007938DF853301A935446052214F8011B41
:104740005148FBF755FD049AD8B9D00644BF202341
:104750008DF85330110744BF2B238DF853309AF84E
:1047600000302A2B15D0079A544600204FF00A0C2F
:10477000214611F8013B303B092B4ED9B0B10792CD
:1047800014E0A0EB080309FA03F313430493A246D1
:10479000D2E7039B191D1B680391002BBBBF5B4233
:1047A00042F0020207930793B8BF049223782E2B9E
:1047B0000CD163782A2B35D1039B1A1D1B680392F9
:1047C000002BB8BF4FF0FF3302340593DFF8C8A0C9
:1047D000217803225046FBF70BFD40B14023A0EBAC
:1047E0000A0003FA00F0049B03430134049314F815
:1047F000011B26488DF828100622FBF7F9FC00283B
:1048000038D0234B1BBB039B073323F0070308332C
:104810000393099B3344099367E70CFB02320C4670
:104820000120A5E700230134059319464FF00A0C37
:10483000204610F8012B303A092A03D9002BC5D0A5
:104840000591C3E70CFB012104460123F0E703AB0C
:1048500000932A460F4B04A93846AFF30080421C50
:104860000646D6D1AB895B063FF52CAF09981DB043
:10487000BDE8F08F03AB00932A46064B04A93846E7
:1048800000F07AF8EBE700BF0C4F0008164F000865
:1048900000000000E5450008124F00082DE9F04730
:1048A000164699468A680B69DDF820809342B8BFA6
:1048B0001346336091F8432007460C460AB1013392
:1048C00033602368990642BF33680233336025683A
:1048D00015F0060506D104F1190AE36832689B1A3F
:1048E000AB4226DC94F84320131E226818BF012334
:1048F00092062BD404F1430249463846C0470130A2
:104900001ED02368E568326803F00603042B08BF55
:10491000AD1AA36822690CBF25EAE575002593420C
:10492000C4BF9B1AED1800261A34B5421AD10020D4
:1049300008E00123524649463846C047013003D1BA
:104940004FF0FF30BDE8F0870135C6E7E1185A1C8B
:10495000302081F84300224494F8451082F8431037
:104960000233C7E70123224649463846C047013093
:10497000E6D00136D9E700002DE9FF470F7E0C9DF8
:10498000782F914680460C469A4601F1430207D89B
:10499000622F0AD8002F00F0D880582F00F0A38093
:1049A00004F1420584F842703AE0A7F16303152B45
:1049B000F6D801A151F823F0114A0008254A000851
:1049C000A1490008A1490008A1490008A14900081F
:1049D000254A0008A1490008A1490008A14900088A
:1049E000A1490008314B0008554A0008134B000844
:1049F000A1490008A1490008534B0008A14900083B
:104A0000554A0008A1490008A14900081B4B0008AD
:104A10002B681A1D1B682A6004F1420584F8423095
:104A20000123A3E020682968060601F104030AD5E2
:104A30000E682B60002E03DA2D23764284F8433073
:104A40005E480A2319E00E682B6010F0400F18BF73
:104A500036B2EFE72B682068191D2960010601D5E1
:104A60001E6802E04606FBD51E8854486F2F0CBF17
:104A700008230A23002184F843106568A560002DEF
:104A8000A2BF216821F0040121600EB9002D4DD094
:104A90001546B6FBF3F103FB1167C75D05F8017D11
:104AA0003746BB420E46F4D9082B0BD12368DE07EC
:104AB00008D5236961689942DEBF302305F8013CBF
:104AC00005F1FF35521B2261CDF800A04B4603AA29
:104AD00021464046FFF7E2FE01304CD14FF0FF3057
:104AE00004B0BDE8F087354881F84570296823682F
:104AF00051F8046B29601D0614D5DF0744BF43F04D
:104B0000200323601EB9236823F0200323601023B1
:104B1000B0E7236843F0200323607823284884F813
:104B20004530E3E7590648BFB6B2E6E71546BBE7AE
:104B30002B6826686169181D286035061B6801D539
:104B4000196002E07006FBD5198000232361154629
:104B5000BAE72B681A1D2A601D6862680021284682
:104B6000FBF746FB08B1401B6060636823610023CC
:104B700084F84330A8E723692A4649464046D0478F
:104B80000130ABD023689B0713D4E068039B9842A5
:104B9000B8BF1846A4E70123324649464046D047ED
:104BA00001309BD00135E36803995B1AAB42F2DC1C
:104BB000EBE7002504F11906F5E700BF1D4F0008DB
:104BC0002E4F00080A44914200F1FF3300D1704794
:104BD00010B511F8014B03F8014F9142F9D110BD06
:104BE000884210B501EB020402D98442234607D85B
:104BF000431EA14208D011F8012B03F8012FF8E75A
:104C0000024401468A4200D110BD13F8014D02F85A
:104C1000014DF7E737B5002944D051F8043C019025
:104C2000002BA1F10404B8BFE41800F013F91E4AE8
:104C30000198136833B96360146003B0BDE8304075
:104C400000F00EB9A34208D9256861198B4201BF53
:104C500019685B6849192160EDE71A465B680BB17A
:104C6000A342FAD911685518A5420BD124682144F2
:104C70005418A3421160E0D11C685B685360214462
:104C80001160DAE702D90C230360D6E725686119C1
:104C90008B4204BF19685B68636004BF49192160D7
:104CA0005460CAE703B030BD4401002070B50E4E19
:104CB0000C463168054611B900F0BCF83060214659
:104CC000284600F0B7F8431C0AD0C41C24F00304A3
:104CD000A04207D0211A284600F0ACF8013001D1DB
:104CE0004FF0FF34204670BD480100202DE9F0410F
:104CF000CD1C25F0030508350C2D38BF0C25002DE3
:104D0000074601DBA94205D90C233B60002630464B
:104D1000BDE8F0812E4E00F09DF833681C4634BB90
:104D200029463846FFF7C2FF431C04464DD134687C
:104D30002646002E40D123683146384604EB03084E
:104D400000F078F880453AD1216803356D1A25F0D6
:104D5000030508350C2D38BF0C2529463846FFF7CA
:104D6000A5FF01302BD023682B4423600EE022687E
:104D7000521B1ED40B2A16D96119A342256018BFF5
:104D80005960636808BF316062514B60384604F176
:104D90000B0600F065F826F00706231DF21AB6D0C0
:104DA0009B1BA350B3E76268A3420CBF32605A60FA
:104DB000ECE723466468B2E734467668B9E70C232B
:104DC0003B60384600F04CF8A1E72560DEE700BF05
:104DD000440100202DE9F041804614460E4621B9D9
:104DE000BDE8F0411146FFF781BF2AB9FFF712FF76
:104DF00025462846BDE8F08100F038F88442074691
:104E000002D8B4EB500F12D821464046FFF76EFF90
:104E100005460028EDD0BC422246314628BF3A461E
:104E2000FFF7D0FE31464046FFF7F4FEE1E7354696
:104E3000DFE7000038B5064D0023044608462B6026
:104E4000FCF7D0FB431C02D12B6803B1236038BDB3
:104E50004C010020014800F011B800BF50010020B3
:104E6000014800F00CB800BF5001002051F8043C8C
:104E7000181F002BBCBF0B58C018704770477047F5
:104E8000F8B500BFF8BC08BC9E467047F8B500BF37
:084E9000F8BC08BC9E46704707
:104E980025642C25642C25642C2564000A46697237
:104EA8006520616C61726D2073797374656D3A2049
:104EB8004F4E0A000A2D2D2D2D2D2D2D2D2D2D2D4A
:104EC8002D2D2D2D2D2D2D2D2D2D2D2D0A000000B4
:104ED8000A4669726520616C61726D20737973741A
:104EE800656D3A204F46460A0000000000000000A9
:104EF8000000000001020304060708090000000082
:104F080001020304232D302B2000686C4C006566D9
:104F18006745464700303132333435363738394102
:104F28004243444546003031323334353637383918
:084F380061626364656600001C
:084F4000FCBBFF7F0100000033
:044F4800C501000897
:044F4C00A1010008B7
:104F50000024F400100000000100000010000020F8
:104F60000000000000000000000000000000000041
:104F70000000000000000000000000000000000031
:104F80000000000000000000000000000000000021
:104F90000000000000000000000000000000000011
:104FA0000000000000000000000000000000000001
:104FB00000000000000000000000000000000000F1
:040000050800167564
:00000001FF
